:100000000F2CFF3FFF3F0034FF00030E83018316D8
:10001000D0000A08D1008A0170088312A4007B086E
:10002000A3007C08A2007D08A100061C2428EA0188
:10003000EF018B101A30FC00F830FD00FD0B1E287C
:10004000FC0B1E28000061280B1D61280B110515F3
:100050008316BE03C73081008312810183163E08D8
:10006000003A031D41288312051196308316BE0005
:100070008312EA01E83083168100FD30831281008B
:100080006128831240308606061F6128FD308100FA
:10009000E8308316810006308312EA0085140511CA
:1000A00096308316BE000B100230FB000430FC00BB
:1000B000BA30FD00FD0B5A28FC0B5A28FB0B5A28BE
:1000C000000083122408F0002308FB002208FC0033
:1000D0002108FD00831651088A00500E8300FF0E90
:1000E0007F0E0900213083120313FD00FD0B7628DB
:1000F00008000F3083120313FC004730FD00FD0B96
:100100007F28FC0B7F280000000008000000000092
:10011000080083160313DB1B902883128711922893
:100120008312871583165B1B9828831207119A2860
:10013000831207158316DB1AA02883128710A228C2
:100140008312871483165B1AA82883120710AA2823
:100150008312071483165518B02883120716B22885
:10016000831207128716862087128316DB19BB2895
:1001700083128711BD288312871583165B19C32844
:1001800083120711C528831207158316DB18CB28A5
:1001900083128710CD288312871483165B18D32807
:1001A00083120710D5288312071483165518DB28ED
:1001B00083120716DD2883120712871686208712FE
:1001C0008316551CE5287920E62872200800FB14C8
:1001D000FB1FF128FF30F300F200F100F000FA0DF0
:1001E000F20CFF300800FA1FF213003008007B15F4
:1001F000FB1F01290130F300F201F101F001FA0DBA
:10020000F20CFF300800F201F101F001F801F301F6
:1002100000300800063083120313FD00FD0B0E2989
:100220000000080083160313DB01DD01DE0110303E
:10023000DF0004305E0203184029F030831288008A
:1002400083165F098800862086200F3083120805F8
:10025000F00070088316DC00700803193A295D0865
:10026000DB005C0803193829DC0CDC13DB0A3129BC
:100270000430DE00DF0D5F100430DD07DE0A1929CF
:100280005B08F00008007B14FB1F4E29F201FA1FE7
:10029000FF30F200F100F000FA0DF20CFF30080020
:1002A00012217008DA000F3083120805F0000319DC
:1002B0005B290A21532983165A08F0000800831687
:1002C000031355105A08DB008920831655140800C3
:1002D0000E3083120313FD00FD0B6C290000080093
:1002E000831603134D088A004C08820008007C180E
:1002F000AD29FC187E297C19CC297729A001720828
:10030000031D9E297108F2007008F1007808F000C2
:10031000F801A0157208031D9E297108F2007008EB
:10032000F100F001A01120167208031D9E2971082A
:10033000F200F101A01572080319C0292008F30288
:10034000031D031CC4290310F21BAD29F80DF00D89
:10035000F10DF20DF30BA429C4297B1B701CC829D5
:10036000F81FC829F00A0319F10A0319F20A031D3C
:10037000C829F20CF10CF00CF30A0319CC29C82996
:100380000130FC000321CF290230FC00F720CF29E7
:100390000430FC00F320CF290830FC00E7200000E7
:1003A000080083160313CB0150217008CB0070089E
:1003B000003A0319D429002A3130CB00302A3230D8
:1003C000CB00302A3330CB00302A3430CB00302AF7
:1003D0003530CB00302A3630CB00302A3730CB00D6
:1003E000302A3830CB00302A3930CB00302A2A303E
:1003F000CB00302A3030CB00302A2330CB00302ADB
:100400004B08013A0319DC294B08023A0319DF298A
:100410004B08033A0319E2294B08053A0319E52969
:100420004B08063A0319E8294B08073A0319EB2948
:100430004B08093A0319EE294B080A3A0319F12926
:100440004B080B3A0319F4294B080D3A0319F72905
:100450004B080E3A0319FA294B080F3A0319FD29E4
:100460004B08F0000800831203137008F800FB012A
:10047000FC019E30F300FA01F201F101F0010230BB
:10048000FC007721080083120313FB017308031D8E
:10049000770803199A2A72087606FA007708F30794
:1004A0007E30031C572AF30203189D2A5A2AF302AE
:1004B000031CA02A7208F8007108FC007008FD00F7
:1004C000F817F6170310F201F101F0011830A0003F
:1004D0007D1C742A7408F00775080318750FF1075E
:1004E00076080318760FF207F20CF10CF00CF80CFA
:1004F000FC0CFD0C0310A00B682AF21B842AF80DDB
:10050000F00DF10DF20DF3037B1B701C962AF81F02
:10051000962AF00A0319F10A0319F20A031D962A12
:10052000F20CF10CF00CF30A03199D2AFA1FF213D6
:100530000030A22A01300321A22A0230E720A22A99
:100540000430F7200000080083120313FB01FC01B4
:10055000FA0173080319D12AFA13F2178630F3024D
:10056000F31BB52A0319B52AD32AF309F30A083075
:100570007302031CC22AF300F20DF2017308031D7B
:100580000310C92A73080319C92A0310F20CF30BCC
:10059000C52A7B1B721CD12A031CD12AF20A03191B
:1005A000D82AF101DB2A7B14FB1FDE2AF101DE2AA7
:1005B0000130FC00E02A0030FC00E02AFF30FC00A3
:1005C000FC080319E42A43217208F0000800831292
:1005D00003139F01C0309F0483161F179F175608EF
:1005E000F000F00D7010F00D7010F00D701070082C
:1005F00083129F041F1468211F151F1D012B00006B
:10060000FD2A1F101E08F100F00183161E08F004D9
:100610000030F10408001D2B803083160313D60030
:10062000302BC030D600302B9430D600302BD43055
:10063000D600302B8030D600302B8316031356089B
:10064000013A03190C2B5608023A0319112B5608CC
:10065000033A0319142B5608043A0319172B1A2BC3
:100660005703F0005608F0077008D6007008DB004A
:10067000892083165510D9015908580784000008AD
:1006800003194A2B5908580784000008DA005F2133
:10069000D90A3C2B5514080083160313871207123E
:1006A000071087100711871183128712071287110D
:1006B00007118710071079207920792087140714F3
:1006C0008716862087127920871686208712792040
:1006D00087168620871279200710871686208712B2
:1006E000792087168620871287108715871686201F
:1006F0008712792087110714871686208712071022
:10070000871686208712792087168620871207147D
:100710008716862087127920071087168620871271
:1007200087150715871407148716862087127920E6
:10073000831655140800FF30831603138800080041
:10074000FF3083160313D200FF30D300FF30D400F4
:10075000FF3083129F01C0309F0483161F179F171D
:1007600083121F14080083120313FA017308031D78
:100770007A147708031DFA147A080319FF2B033A39
:100780000319CA2B7A18C72BF61FFD2BFB2BF21F60
:10079000FB2BFD2B72088039FA00F21376088039A2
:1007A000F6137A060319D82B7A080319FB2BFD2BB5
:1007B000770873020319DF2B031CF32BF72B760842
:1007C00072020319E62B031CF32BF72B7508710239
:1007D0000319ED2B031CF32BF72B7408700203197C
:1007E000FF2B0318F72BFA080319FD2BFB2BFA0834
:1007F0000319FB2BFD2B031408000310080003143E
:1008000003150800080070218A110A128000840A6A
:10081000CC0A0319CD0AF003031D032C0800482657
:10082000313083160313850001308600870189016A
:10083000A0239B234C230C30DB0089208B178B15C6
:1008400083126A08003A031D682D8B16E830831660
:100850008100FD30831281008713851105118510F9
:100860008901870101308316DB008920013083165E
:10087000D6000130D700B030D8000B230230D600AC
:100880000130D7005B30D8000B230230831289007F
:100890008316CE0104304E0203187C2CD12170083F
:1008A000CB000130D6004E080C3ED7005930D8009E
:1008B0000B230230FB000430FC00BA30FD00FD0BBE
:1008C0005F2CFC0B5F2CFB0B5F2C00004E086B3E7B
:1008D000840030300007F100F2010318F20A003002
:1008E0007206031D752C4B087106031D792C8312AB
:1008F000EF0A8316CE0A4A2C0330FB000830FC00B6
:100900007730FD00FD0B822CFC0B822CFB0B822C24
:1009100083126F08043A031D302D0B16831601173E
:100920008B182F2D053083128900EF0101308316BB
:10093000DB00892001308316D6000130D700A030BB
:10094000D8000B23831285143330FB00BB30FC002E
:10095000DF30FD00FD0BAA2CFC0BAA2CFB0BAA2CF4
:100960000000000085108316D601E7227008CF0032
:1009700033222330F400DB30F5007930F6007D308F
:10098000F7004322A42270088316CF003322700898
:10099000F4007108F5007208F6007308F7000030E3
:1009A000F0000030F1007030F2008230F300B32329
:1009B0000130031C0030F00070080319FD2C0130D9
:1009C0008316DB00892001308316D6000130D70062
:1009D0004F30D8000B23831285153330FB00BB301A
:1009E000FC00DF30FD00FD0BF32CFC0BF32CFB0BAC
:1009F000F32C0000000085112E2D83164F08F00007
:100A000033220030F4000030F5006030F60083300F
:100A1000F700B3230130031C0030F0007008031905
:100A20002E2D01308316DB00892001308316D6007D
:100A30000130D7002730D8000B23831285153330BF
:100A4000FB00BB30FC00DF30FD00FD0B252DFC0B57
:100A5000252DFB0B252D000000008511902C672D06
:100A600083120130EA000B16831601170130DB00F8
:100A7000892001308316D6000130D7003330D800EA
:100A80000B238312EF0187176A08013A031D672DB4
:100A900005150430FB000C30FC003330FD00FD0B6D
:100AA0004F2DFC0B4F2DFB0B4F2D000000000511AF
:100AB0000430FB000C30FC003330FD00FD0B5E2DDC
:100AC000FC0B5E2DFB0B5E2D00000000442D202C46
:100AD00083126A08063A031DCD2DEF0101308316FB
:100AE000DB00892002308316D6000130D700403069
:100AF000D8000B23CE0104304E020318A42DD121BF
:100B00007008CB000130D6004E080C3ED7002530CF
:100B1000D8000B230230FB000430FC00BA30FD008B
:100B2000FD0B902DFC0B902DFB0B902D00004E0823
:100B3000BA3E840030304B02F0007008800083120F
:100B4000EF0A8316CE0A7B2D83126F08043A031D29
:100B5000CC2D861FCC2D01308316DB00892001307F
:100B60008316D6000130D700BF30D8000B23CE014A
:100B700004304E020318CA2D4E086B3EF1004E0899
:100B8000BA3E84000008F0007108840070088000FC
:100B9000CE0AB82D8312EA01682DCD2DFF3FFF3F0D
:100BA000FF3FFF3FFF3F2A34003443346C34693445
:100BB0006D3461347434693473346534753472342B
:100BC0000034413463346334653473342034723414
:100BD00065346634753473346534003453346134A9
:100BE000693473346934723420346C34653420349D
:100BF00063346F34643465340034433468346134AE
:100C000075346634663461346734653400342A34AC
:100C100000345334613469347334693472342034A9
:100C20006C346534203463346F3464346534003498
:100C30000034003400340034963463346F34643448
:100C4000653420346334683461346E346734653419
:100C50000034413463346334653473342034613494
:100C6000753474346F3472346934733465342034B9
:100C700000344234693465346E34763465346E340D
:100C800075346534003404340334023401340034E0
:100C900025308400453083120313F000D3308316CF
:100CA000CC000530CD000324A03084001030831226
:100CB0000313F00029308316CC000630CD00032446
:100CC0006A308400013083120313F000033083166E
:100CD000CC000030CD000324B03084000A308312F1
:100CE0000313F00039308316CC000630CD00032406
:100CF0006B308400053083120313F00043308316F9
:100D0000CC000630CD000324BA30840011308312A9
:100D10000313F00018308316CC000630CD000324F6
:100D20000800FF3FFF3FFF3FFF3FFF3FFF3FFF3F09
:02400E000209A5
:00000001FF
